:100524008C338D348B35D3E53494FFE53394FF500D
:1005340018120586E533FF12046EAF34E534120455
:0A0544006EAF3512046E12059E2200
:060435008F2A8C2B8D2C98
:10043B00D3E52C94FFE52B94FF40037F0022AF2ADA
:10044B00120586E52BFF12046EAF2CE52C12046E01
:10045B00AF2A12056B1204F88F2D1205A612059EFA
:02046B00AF2DB3
:01046D00226C
:0C01A4008F088C098D0A8B0B8A0C890DCA
:1001B000D3E50A94FFE50994FF4003020257E50ADC
:1001C0002401F513E43509F512120586E509FF123D
:1001D000046EAF0AE50A12046EAB0BAA0CA90D124D
:1001E0000003FF12046E751000751101C3E511952F
:1001F0000FE510950E505DAB0BAA0CA90D85118271
:1002000085108312001C604CE513702312059EE4D8
:10021000FFFE0FBF00010EBE30F8BF0CF5AF081295
:100220000586E512FF12046EAF13E51312046EABE0
:100230000BAA0CA90D85118285108312001CFF12D8
:10024000046E0513E513700205120511E511709C8B
:070250000510809812059EC5
:010257002284
:0C0258008F148C158D168B178A188919CD
:10026400D3E51694FFE51594FF40030202F112054D
:1002740086E515FF12046EAF16E51612046E9000A3
:1002840000AF82AE83E4FCFD7B4C7ACCF9F8D31248
:1002940000C04003A380EAAF1412056BE4F51CF51B
:1002A4001DE51B24FFFFE51A34FFFEC3E51D9FE592
:1002B4001C9E50201204F8AB17AA18A919851D8298
:1002C400851C83EF1200491205BE051DE51D70D182
:1002D400051C80CD1204F8AB17AA18A919851D8234
:0D02E400851C83EF1200491205A612059E2D
:0102F10022EA
:1004CC007F807E251202F275280C7529FCAD29ACB3
:1004DC00287F501204351205AE0529E52970020556
:0C04EC0028C3942EE528940D40E380FE08
:07055D00C2B4120564D2B51F
:06056400E4FF0FBF0AFCDA
:01056A00226E
:0F054E00D2B5D2B4120564C2B4120564C2B5228C
:08059E0012055DD2B4020564F0
:0605BE0012055DC2B5222A
:0805A600D2B412055FC2B522B8
:02046E00AE07D7
:100470007D07A805EE088002C313D8FC1392B412BE
:10048000055FC2B51DC3ED6480948050E51205641C
:0D049000D2B5A2B49200120564C2B5A2005C
:01049D00223C
:1004F800E4FE7D07120564D2B5A2B4E4334EFF25AD
:10050800E0FE120564C2B5DDEB120564D2B5A2B4F3
:0B051800E4334206120564C2B5AF06D2
:0105230022B5
:0C058600AE0712054EEE25E0FF02046EE9
:0E056B00AE0712054EEE25E04401FF02046EBD
:1002F2008E2A8F2BE4FCFDFB7AE1F9F8C31200C0D1
:100302004046759850E589540F4420F589AC2AADD2
:100312002B7E707F8012006BED4C6017438780AE9E
:100322002AAF2BAB07AA06E4F8FF7EE1FDFC12031D
:10033200F1800E53877FAC2AAD2B7E707F80120036
:090342006BEFF404F58DD28E225C
:0805AE008F993099FDC29922DA
:0705B6003098FDAF99C298D7
:0105BD00221B
:06049E008B368A37893815
:1004A400E4FDFCAB36AA37A9388D828C8312001C7C
:1004B40060150DEDAE0470010C14F5828E831200EC
:0704C4001CFF1205AE80DCF5
:0104CB00220E
:0D05790012049E7F0D1205AE7F0A0205AE32
:0A039F008B2E8A2F89308C318D32AD
:1003A900E4FFFEC3EF9532E5316480F8EE6480988E
:1003B90050357D0C7C30209816ED1D70011C144CB5
:1003C90070F4AB2EAA2FA9308F828E83020049AB1D
:1003D9002EAA2FA9308F828E83E599120049C298DF
:0703E9000FBF00010E80BCF4
:0103F00022EA
:0A034B008B218A2289238C248D2542
:10035500E4FDFCC3ED9525E5246480F8EC64809804
:1003650050331205B68F27E527B52613AB21AA22F0
:10037500A9238D828C83E4120049AF05AE0422AB1C
:1003850021AA22A9238D828C83E5271200490DBD60
:0903950000010C80BEAE04AF05AE
:01039E00223C
:0305C400A29822D8
:0300000002059264
:0C059200787FE4F6D8FD7581380204CCB7
:10000300BB010689828A83E0225002E722BBFE02FB
:09001300E32289828A83E493222E
:10001C00BB010CE58229F582E5833AF583E0225099
:10002C0006E92582F8E622BBFE06E92582F8E222E3
:0D003C00E58229F582E5833AF583E49322FD
:10004900F8BB010DE58229F582E5833AF583E8F0ED
:10005900225006E92582C8F622BBFE05E92582C899
:02006900F22281
:10006B00BC000BBE0029EF8DF084FFADF022E4CC79
:10007B00F875F008EF2FFFEE33FEEC33FCEE9DEC42
:10008B00984005FCEE9DFE0FD5F0E9E4CEFD22ED88
:10009B00F8F5F0EE8420D21CFEADF075F008EF2FD2
:1000AB00FFED33FD4007985006D5F0F222C398FDC3
:0500BB000FD5F0EA2260
:1003F100C2D5E830E70FB2D5E4C39BFBE49AFAE437
:1004010099F9E498F8EC30E717B2D51204271201F4
:1004110012E4C39BFBE49AFAE499F9E498F88003A7
:1004210012011230D50DE4C39FFFE49EFEE49DFD51
:04043100E49CFC2229
:1000C000EB9FF5F0EA9E42F0E99D42F0EC6480C8B7
:0600D00064809845F02257
:1000D60075F008758200EF2FFFEE33FECD33CDCCE1
:1000E60033CCC58233C5829BED9AEC99E582984064
:1000F6000CF582EE9BFEED9AFDEC99FC0FD5F0D641
:10010600E4CEFBE4CDFAE4CCF9A88222B800C1B96A
:100116000059BA002DEC8BF084CFCECDFCE5F0CBA8
:10012600F97818EF2FFFEE33FEED33FDEC33FCEBE1
:1001360033FB10D703994004EB99FB0FD8E5E4F99C
:10014600FA227818EF2FFFEE33FEED33FDEC33FC89
:10015600C933C910D7059BE99A4007EC9BFCE99A7D
:10016600F90FD8E0E4C9FAE4CCFB2275F010EF2FC2
:10017600FFEE33FEED33FDCC33CCC833C810D707C2
:100186009BEC9AE899400AED9BFDEC9AFCE899F8FD
:0E0196000FD5F0DAE4CDFBE4CCFAE4C8F92290
:00000001FF
