:0A01D60061626365646678696A007F
:07018B00C2B4120192D2B5CB
:0E019200E4FFFE0FBF00010EEF640A4E70F591
:0101A000223C
:0F01A100D2B5D2B4120192C2B4120192C2B522E9
:0801E00012018BD2B40201925E
:0601F00012018BC2B522D2
:0801E800D2B412018DC2B52250
:02013800AD0711
:10013A007B07A803ED088002C313D8FC1392B412FC
:10014A00018DC2B51BC3EB6480948050E512019205
:0D015A00D2B5A2B49200120192C2B5A2006B
:010167002275
:100168007DFF7C07120192D2B5A2B4E4335DFF256E
:10017800E0FD120192C2B51CC3EC6480948050E487
:02018800AF05C1
:01018A002252
:0C01BE00AD071201A1ED25E0FF020138A1
:0E01B000AD071201A1ED25E04401FF02013868
:1000F90078087C007D007BFF7A0179D67E007F0A33
:100109001200D31201A17FA01201387F64120138B5
:100119001201A17FA1120138E4FB1201681201F05A
:0F0129000BBB07F61201681201E81201E080FE1D
:030000000201CA30
:0C01CA00787FE4F6D8FD7581200200F972
:10000300E709F608DFFA8046E709F208DFFA803EDF
:1000130088828C83E709F0A3DFFA8032E309F608CC
:10002300DFFA8078E309F208DFFA807088828C8334
:10003300E309F0A3DFFA806489828A83E0A3F608E8
:10004300DFFA805889828A83E0A3F208DFFA804CC2
:1000530080D280FA80C680D4806980F28033801099
:1000630080A680EA809A80A880DA80E280CA803302
:1000730089828A83ECFAE493A3C8C582C8CCC5837A
:10008300CCF0A3C8C582C8CCC583CCDFE9DEE7804A
:100093000D89828A83E493A3F608DFF9ECFAA9F0C9
:1000A300EDFB2289828A83ECFAE0A3C8C582C8CC1F
:1000B300C583CCF0A3C8C582C8CCC583CCDFEADE38
:1000C300E880DB89828A83E493A3F208DFF980CC9A
:1000D30088F0EF60010E4E60C388F0ED2402B40493
:1000E3000050B9F582EB2402B4040050AF2323453A
:0600F3008223900053730C
:00000001FF
