:0400B50002080057E6
:10008F00EF1FAA0670011E4A6014AC08AD09D3ED2C
:0E009F009400EC940040E9ED1D70F31C80F01D
:0100AD002230
:0700AE007FF47E0102008FC8
:03000000020003F8
:0C000300787FE4F6D8FD75810902004A00
:10000F000200AEE493A3F8E493A34003F68001F259
:10001F0008DFF48029E493A3F85407240CC8C333F2
:10002F00C4540F4420C8834004F456800146F6DFC1
:10003F00E4800B01020408102040809000B5E47E9C
:10004F00019360BCA3FF543F30E509541FFEE493B6
:10005F00A360010ECF54C025E060A840B8E493A37D
:10006F00FAE493A3F8E493A3C8C582C8CAC583CAA8
:10007F00F0A3C8C582C8CAC583CADFE9DEE780BE60
:0100B9000046
:00000001FF
